:020000040800F2
:10000000D007002011030008BB2900081F290008A1
:10001000B92900084F1D0008F12B0008000000005E
:10002000000000000000000000000000BF290008E0
:10003000511D000800000000BD290008C12900086A
:100040002B0300082B0300082B0300082B030008D8
:100050002B0300082B0300082B0300082B030008C8
:100060002B0300082B0300082B0300082B030008B8
:100070002B0300082B0300082B0300082B030008A8
:100080002B0300082B0300082B0300082B03000898
:100090002B0300082B0300082B0300082B03000888
:1000A0002B0300082B0300082B0300082B03000878
:1000B0002B0300082B0300082B0300082B03000868
:1000C0002B0300082B0300082B0300082B03000858
:1000D0002B0300082B0300082B0300082B03000848
:1000E0002B0300082B0300082B0300082B03000838
:1000F0002B0300082B0300082B0300082B03000828
:100100002B0300082B0300082B0300082B03000817
:100110002B0300082B0300082B0300082B03000807
:100120002B0300082B0300082B0300082B030008F7
:100130002B03000800000000000000002B03000853
:100140002B0300082B0300082B0300082B030008D7
:100150002B0300082B0300082B0300082B030008C7
:100160002B0300082B0300082B0300082B030008B7
:100170002B0300082B0300082B03000800000000DD
:10018000000000002B030008000000000000000039
:100190002B03000800000000000000002B030008F3
:1001A0000000000000000000000000002B03000819
:1001B0002B0300082B0300082B0300082B03000867
:1001C0002B03000800F002F800F092F80AA090E873
:1001D000000C82448344AAF10107DA4501D100F002
:1001E00087F8AFF2090EBAE80F0013F0010F18BF3D
:1001F000FB1A43F00103184784310000A4310000CA
:10020000103A24BF78C878C1FAD8520724BF30C842
:1002100030C144BF04680C60704700000023002414
:1002200000250026103A28BF78C1FBD8520728BF06
:1002300030C148BF0B6070476E2900F0FB81702908
:1002400000F03D83662903F00A80652903F00780EA
:10025000672903F00480612903F0038003681B0A07
:1002600028BF41F08001692900F0A881642900F0CD
:10027000A581752900F0A2816F2900F0CA82782932
:1002800000F00983E92900F06582E42900F0628228
:10029000F52900F05F82EF2900F0C782F82900F00D
:1002A00008830368DB0928BF41F08001632901F05E
:1002B0000B80732901F01080E32901F01B80F329E2
:1002C00001F02080002070471FB502F0C3FF01F04D
:1002D0006BF804000020002102F0A6FF401C6060C3
:1002E0000020002102F08AFFE0601FBD10B510BDA4
:1002F00001F02CF81146FFF7E7FF02F01BFF01F0B9
:1003000009F903B4FFF7F2FF03BC01F051F9000053
:100310000948804709480047FEE7FEE7FEE7FEE799
:10032000FEE7FEE7FEE7FEE7FEE7FEE704480549D5
:10033000054A064B704700005D2A0008C501000809
:10034000D0010020D0070020D0030020D0030020DF
:1003500053EA020C00F069802DE9F04B4FF00006E3
:10036000002B1FBFB3FA83F503FA05F424FA05F650
:100370005E4012BF1643B2FA82F502FA05F4C5F1E7
:1003800020051EBF22FA05FC44EA0C04203556EA7B
:10039000044C4FEA144418BF641C4FF000084FF09F
:1003A0000009904271EB030C39D3002919BFB1FA4F
:1003B00081F701FA07F6B0FA80F700FA07F6C7F1FD
:1003C00020071EBF20FA07FC46EA0C062037B6FBC2
:1003D000F4FCA7EB0507103F07F01F0BCBF120063D
:1003E0000CFA0BFB2CFA06F644BFB3460026202F6E
:1003F000A4BF5E464FF0000B5BEA060C08BF4FF04F
:10040000010B19EB0B09ABFB027C48EB0608C01B88
:1004100006FB02CC0BFB03CC71EB0C01C1E70B46D6
:10042000024641464846BDE8F08B13B54FF0000048
:100430004FF00001AFF30080BDE81C4070470000A2
:100440001CB50C46064B7B4469460090204600F0E4
:100450000AF904460020694600F018F920461CBD40
:100460004302000010B5431C02E010F8011B71B1FB
:100470008107FAD14FF0013202C88C1A8C4314EA7A
:10048000C211F9D0C01A0A0603D0C01E10BDC01A8E
:1004900010BD0A0401D0801E10BD0902FCD0401E10
:1004A00010BD4FF0000200B5134694469646203921
:1004B00022BFA0E80C50A0E80C50B1F12001BFF41D
:1004C000F7AF090728BFA0E80C5048BF0CC05DF883
:1004D00004EB890028BF40F8042B08BF704748BFD1
:1004E00020F8022B11F0804F18BF00F8012B704745
:1004F00070477047704770B5044685690068C1064B
:1005000001D5302600E02026C00707D070BDD4E911
:10051000012130469047206A401C20626D1EF6D5AE
:1005200070BD70B5044685690078C00707D170BDFD
:10053000D4E9012120209047206A401C20626D1ED2
:10054000F6D570BD09684A0501D540B27047C905A6
:10055000FCD500B2704709684A0501D5C0B27047A2
:10056000C905FCD580B2704770B50C460546012A16
:1005700005D02878800600D5EA69002302E001232F
:1005800005E05B1C934202D2E05C0028F9D1A86927
:10059000E618C01AA861286A184428622846FFF79E
:1005A000AAFF04E0D5E9012114F8010B9047B442F9
:1005B000F8D32846FFF7B5FF70BD00002DE9F041E4
:1005C0000646002410687529314616A510D0FFF79D
:1005D000B9FF002802DA404213A507E031688A0714
:1005E00001D512A502E0490704D511A5012401E0B7
:1005F000FFF7B1FF00210A2206F1240709E0B0FB52
:10060000F2FCB0FBF2F302FB1C00303078541846C9
:10061000491C0028F3D123462A463046BDE8F04164
:1006200000F061BA000000002D0000002B00000067
:100630002000000011680268006A530501D50870A7
:100640000AE0D30501D5088006E0130603D5C217DA
:10065000C1E9000200E008600120704701694A1CFE
:1006600002610878704700B58FB0CDE901310021F3
:10067000059105497944CDE903101146684600F01B
:1006800029F90FB000BD0000E5FFFFFF0A6802F87E
:10069000010B0A60704700002DE9FF5F15468A468E
:1006A0000446DFF8AC80F8440027D8E900103E4645
:1006B000CDE9001010E03AF816106A4602A800F0E2
:1006C00025FE411C07D02178890603D5E269391837
:1006D00091420DD80744761C2078800602D5E06947
:1006E000B84205DDAE42E6DB3AF816000028E2D15A
:1006F000A069C01BA0612046FFF7FDFED8E90010ED
:10070000CDE90010002017E03AF818106A4602A858
:1007100000F0FCFDB0F1FF3F81460BD000250DF14C
:10072000080B05E0D4E901211BF8050090476D1C7A
:100730004D45F7D308F10100B0428046E4DB206A62
:10074000384420622046FFF7ECFEBDE8FF9F000022
:10075000D62B00002DE9F0418046D21D22F0070281
:100760000025D2E90002F52915A614D0011E72F168
:10077000000106DA0023D0EB030063EB020211A6AE
:1007800008E0D8F800108B0701D50FA602E0490752
:1007900001D50EA601251146002408F1240704E026
:1007A00000F05CF930323A55641C50EA0102F7D18E
:1007B0002B46324621464046BDE8F04100F093B951
:1007C000000000002D0000002B00000020000000B1
:1007D00030B4002100F1240408E002F00705D2083B
:1007E000303542EA4372DB086554491C52EA03057E
:1007F000F3D10468002310A2250707D5A40600D46E
:1008000021B1C46901230DA2641EC46130BC00F093
:100810006AB910B5044621461068FFF79CFE0246EF
:100820002046BDE810400023D2E7D21D22F0070188
:10083000D1E90023CCE700000000000030000000F8
:10084000F0B40D460188090502D5214C7C4402E034
:100850001F4C7C440E34002100F1240608E002F015
:100860000F071209E75D42EA03721B097754491C1E
:1008700052EA0307F3D102780023120704D5702D42
:1008800006D009B1022311342246F0BC00F02BB986
:1008900001231034F8E770B504460D462146106870
:1008A000FFF759FE024629462046BDE87040002366
:1008B000C6E7D21D22F00703D3E90023C0E703688F
:1008C000126843F0200303600823C3610023B7E7E5
:1008D000382A00002DE9F05F894604464FF0000AEF
:1008E000DFF874B1FB44C0F820A02046E1688847D7
:1008F000002874D0252806D0D4E901219047206A29
:10090000401C2062F1E700265F462046E1688847E8
:100910002028054607DB312D05D2781910F8200C68
:1009200008B10643F1E7B00701D526F00406C4F884
:100930001CA00027C4F818A02A2D09D0284602F0D0
:1009400080F938B304EB8708303DC8F8185019E037
:1009500059F8041B204604EB87029161E16888473F
:10096000012F054618D1E069002820DA26F020067C
:100970001DE0D8F8180000EB800005EB400030388F
:10098000C8F818002046E1688847054602F059F982
:100990000028EED1012F0AD02E2D08D12046E16883
:1009A00088477F1C0546022F46F02006C4DBA0695D
:1009B000002803DA404246F00106A061F00701D0AA
:1009C00026F010066C2D0BD0682D09D04C2D39D097
:1009D0006A2D35D0742D35D07A2D33D016E038E01D
:1009E000E1682F4620468847B842054609D16C2F5A
:1009F00026D04FF48060E1680643204688470546CC
:100A000004E06C2F1AD04FF4807006430DB3A5F1AB
:100A10004100192802D8203546F400664A46294686
:100A2000204626604E46FFF707FC80B101280BD018
:100A3000F61D26F0070000F1080956E74020E4E71C
:100A40008020D8E70020D6E706F104094DE72846C4
:100A500052E7206ABDE8F09FC829000030B5B0F128
:100A60000A024FEA900E71F100034EEA817EB0EB6C
:100A70000E0061EB91014FEA101E4EEA017E10EB71
:100A80000E0041EB11114FEA102E4EEA016E10EBF1
:100A90000E0041EB11214FEA104E4EEA014E10EBD1
:100AA0000E0041EB1141401841F100014FEAD00026
:100AB00040EA41704FEAD10110EB80054FEA810412
:100AC00044EA907444EB01046D1944EB0404521B96
:100AD000A3414FF0000348BF0A3200D530BD401C8F
:100AE00041F1000130BD2DE9F0470D46994692468F
:100AF000044600F124080168880604D5E06921F065
:100B00001001216000E00120A84201DD471B00E048
:100B10000027A1697A1902EB0900081AA061207860
:100B2000C00602D42046FFF7E6FC002608E0D4E920
:100B300001211AF806009047206A401C761C2062AA
:100B40004E45F4DB2078C0060AD52046FFF7D3FCDB
:100B500006E0D4E9012130209047206A401C206241
:100B6000381EA7F10107F4DC07E0D4E9012118F8E9
:100B700005009047206A401C2062281EA5F101054F
:100B8000F3DC2046FFF7CDFC2078000602D50220DA
:100B9000BDE8F0870120FBE770472DE9FF4F0C46C9
:100BA0001E464FF0FF378BB0D2E90001DDF86080C0
:100BB0000A908A46C1F30A5505B93D460021084608
:100BC0004FF00000BAF1000F00F4400005DA00EB2E
:100BD00080004FF4400101EA50004FEA9059B9F10A
:100BE000010F00DDB9460A9850EA4A000ED044F6DB
:100BF0001050A5F2FF3545432F14B8F1000F1ED059
:100C00007542291E1EDDC9F100021CE0B8F1010F7A
:100C10004FF0000001D0302103E0F24305E0215401
:100C2000401CB042FBDB30460022002121540B99CE
:100C3000C1F80880C1E900200FB0BDE8F08FBD1BEE
:100C40006D1CDEE74A4600DA694206A800F0F0FBB8
:100C500006AB93E8070003AB83E8070050460A9908
:100C600000F0ADFC8DE80700A0F500501F380090A3
:100C70000398002D0ADD42F21F014A460844002372
:100C800003A90390684600F016FF09E0A0F50050A4
:100C90004A461F38002303A90390684600F020FF4E
:100CA0008DE807000004000C03D04FF0FF3041082E
:100CB00000E01046B8F1000F03D000220092154664
:100CC0001EE0751E05D4FFF7C9FE303262556D1E59
:100CD000F9D5B3460122084302D000227F1C04E06C
:100CE0002078302801D100227F1E002A099784D065
:100CF0001DE0112D07DAFFF7B1FE303262556D1C91
:100D000050EA0102F5D1084302D00098C8B10EE0C4
:100D10000021681E05E0235C625C63542254401E7F
:100D2000491C8142F7DBAB46A81B401E09900020FE
:100D300004F80B000B98099AC0F80880C0E9002B52
:100D40007AE711264FF0000857E72DE9F04F884663
:100D50000446D21D22F0070191B0D1E90001CDE98E
:100D60000A0101F046FF02460B98C00F01D02D206A
:100D700007E02068810701D52B2002E0202101EA4D
:100D8000C000032A099001D0072A05DB034641462B
:100D9000204600F00DFB0BE12078800601D5E069CC
:100DA00000E00620B8F1650F814606D0B8F1660F65
:100DB00018D0B8F1670F70D131E00020B9F1110FF0
:100DC000009001DB112301E009F101030AAA01A946
:100DD0000CA8FFF7E2FEDDE90C70002609F1010521
:100DE000834647E001204B4600904FF000470AAA97
:100DF00001A90CA8FFF7D1FEDDE90DB00C995D4605
:100E0000002610B909F101000D18B9EB050003D453
:100E1000C0F1FF3609F10105A5EB09002BE0B9F19E
:100E2000010F01DA4FF001090020B9F1110F009014
:100E3000484601DD112300E003460AAA01A90CA8D7
:100E4000FFF7ABFEDDE90C704D46002683462078A7
:100E500000070AD4AB4500DA5D4601A8012D04DD88
:100E6000411911F8011C302907D04F4502DA17F15A
:100E7000040F04DA012082460FE06D1EEEE7002F1A
:100E800002DCED1B3E4403E0781CA84200DD7D1C23
:100E9000B81B00F1010A4FF000472078000703D487
:100EA000AA4501DB4FF0FF3A0021B7F1004F0DF1E9
:100EB00043088DF8431024D002202B23002F01DAA1
:100EC0007F422D230A21021EA0F1010000DC5FB148
:100ED00097FBF1FC97FBF1F201FB1C7C17460CF130
:100EE000300C08F801CDEEE7A8F10100037021886D
:100EF000090501D5452100E06521A0F1010800F8B0
:100F0000011C09980FA9A1EB0807FF1D00B10120E2
:100F1000411901EBEA70A1693844081A401EA0612A
:100F20002078C00602D42046FFF7E5FA099828B1D8
:100F3000D4E901219047206A401C20622078C00635
:100F400022D52046FFF7D7FA1EE0002E04DBB3457A
:100F500002DD01A8805D00E03020D4E90121904746
:100F6000206A401C2062761CAAF101005FEA000A98
:100F70000AD100F019FAC0680168405CD4E9012187
:100F80009047206A401C2062281EA5F10105DCDC88
:100F900007E0D4E9012118F8010B9047206A401CB2
:100FA0002062381EA7F10107F3DC2046FFF7B9FAEB
:100FB000032011B041E600002DE9F04F04460D4634
:100FC000D21D22F0070089B0D0E900974846394683
:100FD00001F00FFE0246F80F01D02D2307E0206834
:100FE000810701D52B2302E0202101EAC0038DF8FF
:100FF00020300BB1012000E00020032A824601D0FE
:10100000072A04DB2946204600F0D2F93FE1207888
:10101000800601D40D2500E0E569C7F30A560D2DC1
:1010200049DA00214FEA175B08464FF00000002F15
:1010300000F4400007DA00EB80004FF4400100EBC1
:10104000D07001EA60008115012901DD4FF0FF3108
:1010500000224FEA850CBCF1180F06D31346ACF101
:1010600018004FF08052C24003E04FF4801323FA7F
:101070000CF30CF10C0CBCF1200F04D3ACF1200CE0
:1010800009FA0CF001E007FA0CF000294FF00048D3
:1010900001DD18B90FE00ED140450CD319EB020960
:1010A0005F4121B9404502D19F4329EA0209BBEBC8
:1010B000175F00D0761C2088000502D57B48784455
:1010C00002E07A487844193808AA302302F80A3036
:1010D000037C0AF10101002E0AF1020A53546A4608
:1010E00002DC4FF0300101E04FF031014FF0010818
:1010F0008DF8001002D0A6F2FF3603E059EA47014E
:1011000000D06B4E002D02DC2178090704D54FF08A
:1011100002082E218DF80110C44600210BE0C7F310
:1011200003433F01C35C491C6D1E02F808300529CA
:1011300008F1010801DA002DF1DC00210CE000EBE0
:101140001973491C1B786D1E082902F808304FEAF4
:10115000091908F1010801DA002DF0DC21688B067D
:1011600002D516E0A8F10108E04505DD02EB080311
:1011700013F8013C302BF5D0B8F1000F09DD02EB7C
:10118000080313F8013C2E2B03D1090701D4A8F161
:101190000108002D05DD3E2102F808106D1E08F142
:1011A0000108407C002E02F8080008F1010804DA6A
:1011B0002D20764202F8080002E02B2002F80800F9
:1011C0000A214FF47A70864208F101080BDB96FB86
:1011D000F0F3303302F8083096FBF0F308F1010821
:1011E00000FB136601E0642E0CDB642096FBF0F339
:1011F000303302F8083096FBF0F308F1010800FBE9
:10120000136601E00A2E06DB96FBF1F0303002F89F
:10121000080008F1010896FBF1F001FB1060303086
:1012200002F80800A16908F1010808EB050202EBC9
:101230000A00081AA0612078C00602D42046FFF7F1
:101240005AF9216A08AE01EB0A00206204E0D4E9F1
:10125000012116F8010B9047BAF1010AF7D2207864
:10126000C00602D52046FFF746F96E4609E016F89B
:10127000010B3E280FD0D4E901219047206A401C81
:101280002062B8F10108F2D22046FFF74AF909B00E
:101290000320BDE8F08F206A2844206203E0D4E9EF
:1012A0000121302090476D1EEBD3F8E71222000099
:1012B00002FCFFFF10B5436913B1AFF3008001E0FA
:1012C000FFF752F9012010BD127800F124010A70D5
:1012D00000224A700122EDE711684FF0FF32E9E782
:1012E00010B5436913B1AFF3008001E0FFF7D4F903
:1012F000012010BD128800F1240182840022C284E2
:101300000122EDE711684FF0FF32E9E770B51646AC
:101310000C46054600F040F8036893F801010128E7
:1013200006D0FF2C0FD8185D68B101202C7070BD5D
:10133000D3F807013246214603F207130344284637
:10134000BDE8704018474FF0FF3070BD754600F0A3
:10135000EBF8AE4605006946534620F00700854687
:1013600018B020B5FEF7E2FFBDE820404FF00006C0
:101370004FF000074FF000084FF0000B21F007017D
:10138000AC46ACE8C009ACE8C009ACE8C009ACE8C0
:10139000C0098D467047000010B500F005F8001D2B
:1013A00010BD00BF851E000000487047900100205E
:1013B0002DE9F0411F46044603260168072A01F47F
:1013C000006004DB08B116A505E016A503E008B12E
:1013D00015A500E015A521F010002060A069C01E31
:1013E000A0610FB1401EA0612046FFF784F84FB105
:1013F000D4E9012138469047206A401C2062C01C75
:10140000206206E0206AFAE7D4E9012115F8010B11
:101410009047761EF8D22046FFF783F8BDE8F081AA
:101420004E414E006E616E00494E4600696E660088
:101430002DE9F047814616468AB0354878440DC8F4
:101440008DE80D0032487844801C03AC0DC884E858
:101450000D0041F69B300844372190FBF1F290FBE0
:10146000F1F5A5F1800501FB12041B3C02D5644295
:10147000012000E00020DFF898A080460027FA4411
:10148000AAF1BE0A0EE0E0070AD03246684607EB32
:10149000470101230AEB810100F022FB8DE80700E0
:1014A00064107F1C002CEED1194F7F44AE3F19E031
:1014B000E80715D007EB04100DF1180A90E80E00AC
:1014C0008AE80E00C068F04201D1981908903246AF
:1014D000012306A903A800F003FB03AB83E8070080
:1014E0006D10641C002DE3D14FF0010332466946B4
:1014F000B8F1000F03A802D000F0DDFA01E000F01F
:10150000EFFAC9E90001C9F808200AB0BDE8F08780
:10151000241F000010B50446AFF300802046BDE84C
:101520001040FEF7EEBE000000487047700100203A
:101530004FF0013C50F8042B51F8043B9A4221D162
:10154000A2EB0C03934313EACC1317D150F8042BEE
:1015500051F8043B9A4215D1A2EB0C03934313EAD2
:10156000CC130BD150F8042B51F8043B9A4209D10B
:10157000A2EB0C03934313EACC13DBD04FF0000033
:10158000704700BFD01A01BAB1FA81F101F0180119
:1015900022FA01F0CB40C1F12001DBB2C0B2C01A87
:1015A0002CFA01F3D11A914311EAC311E6D1704725
:1015B00001491820ABBEFEE72600020070475FEA33
:1015C000400C08BF91F0000F4FEA8C234FEAC12274
:1015D00043EA51514FEA1C5018BF00F5F0404FEA62
:1015E000300018BF41F000415FEA6C5C00F02980D8
:1015F000BCF1FF3F08BF40F080407047130C06BFAE
:1016000012044FF0100C4FF0000C130E04BF120226
:101610000CF1080C130F04BF12010CF1040C930F12
:1016200004BF92000CF1020CD30F04BF52000CF166
:10163000010C11464FF00002A0F11F00A0EB0C00BE
:10164000704711F0004F08BF704731F000413FF480
:10165000D5AF0B0C06BF09044FF0100C4FF0000C77
:101660000B0E04BF09020CF1080C0B0F04BF09019B
:101670000CF1040C8B0F04BF89000CF1020CCB0F92
:1016800004BF49000CF1010CCCF12003A0EB0C00CD
:1016900022FA03F302FA0CF241EA030100F101001D
:1016A000704720F07F4C80EA030023F07F47ACEBCB
:1016B000070303F57C5300F0004003F1FF032DE91D
:1016C00080494FEA154B09B44FEA144325EA0B4E03
:1016D00024EA03480FF2042606EB132749083E7854
:1016E0005FEA320203FB0667C7F5000707FB06F651
:1016F0004FEA54374FEAD64606F1020607FB066C5E
:10170000CCF1005C4FEA1C472CEA074C07FB06F4BF
:101710000CFB06F504EB15464FEA961634BF002085
:101720004FF000404FEAD13706FB07FC4FEA1C4C54
:101730000CFB0BF7D21B03FB0CF761EB07010CFB57
:101740000EF7B0EB074072EB17420CFB08F734BF03
:10175000A2EB0742B2EB074261EB17414FEA0C44A0
:101760004FEA910706FB07FC4FEA1C4C0CFB0BF7FA
:10177000B0EBC74072EB573203FB0CF734BFA2EB60
:10178000C742B2EBC74261EB57310CFB0EF7B0EB2F
:10179000C70072EB57720CFB08F734BFA2EBC7020D
:1017A000B2EBC70261EB5771039F4FEA816141EAD7
:1017B000921104EBCC044FEAD1374FEA826206FB68
:1017C00007FC42EA90124FEA80604FEA1C4C0CFB87
:1017D0000BF7D21B03FB0CF761EB07010CFB0EF7B9
:1017E000B0EB074072EB17420CFB08F734BFA2EBDB
:1017F0000742B2EB074261EB17414FEA8C554FEAC3
:10180000910704EB9C2406FB07FC4FEA1C4C0CFBE5
:101810000BF7B0EBC74072EB573203FB0CF734BF4A
:10182000A2EBC742B2EBC74261EB57310CFB0EF79C
:10183000B0EBC70072EB57720CFB08F734BFA2EB9A
:10184000C702B2EBC70261EB577115EB4C254FEAAB
:10185000816141EA92114FEA82624FEAD13742EA4E
:10186000901206FB07FC44F100044FEA80604FEA47
:101870001C4C0CFB0BF7D21B03FB0CF761EB0701B5
:101880000CFB0EF7B0EB074072EB17420CFB08F7AE
:1018900034BFA2EB0742B2EB074261EB174115EBF5
:1018A0001C154FEA813141EA92414FEA823242EA05
:1018B00090424FEA80304FEA0C7644F1000448EA47
:1018C00003434EEA0B484FF0000EB2EB080C71EBED
:1018D000030724BF624639464EEB0E0E4FF0000B55
:1018E0000018524149414BEB0B0BB2EB080C71EB6A
:1018F00003077BF1000B24BF624639464EEB0E0E08
:101900004FF0000B0018524149414BEB0B0BB2EB6F
:10191000080C71EB03077BF1000B24BF62463946CC
:101920004EEB0E0E51EA020718BF46F0010616EB09
:101930000E7655F1000254F1000103D5BDE889018E
:10194000BDE80088BDE88901BDE80048B6195241EC
:1019500041EB0101A3F10103704780807F7E7D7C14
:101960007B7A7978777676757473727171706F6E31
:101970006E6D6C6C6B6A6A696868676666656464DC
:10198000636362616160605F5F5E5E5D5D5C5C5B66
:101990005B5A5A59595858575756565555555454D5
:1019A000535352525251515050504F4F4F4E4E4D33
:1019B0004D4D4C4C4C4B4B4B4A4A4A49494948487F
:1019C00048474747474646464545454444444443BF
:1019D00043434342424242414141002B9C4630D462
:1019E00077002BD01CB54FEA370703B44FF0100037
:1019F0004FF01001BAF1000F06D0BCF1000FDCBFB0
:101A000040F0080040F008014FF000000FBCBDE8B6
:101A100010400BF1010BBBF1010F08BF5FEA170784
:101A200022BF12F1010211F101014FF0004143F117
:101A3000000300F0004043EA00007047F9D3570864
:101A4000D0E746EA064613F1400F4FEA16461FDD7F
:101A500013F1200FDFBF16430A46002120335B42FB
:101A6000BED0C3F1200746EA064602FA07F74FEA5E
:101A7000164646EA0706C3F1200722FA03F201FAE6
:101A800007F721FA03F14FF0000342EA0702A7E744
:101A900046EA020646EA06464FEA164646EA0106C6
:101AA000BCBF46EA0646360C4FF000034FF000027A
:101AB0004FF0000194E72DE9804C9A46934670B4AC
:101AC00091E8380007C831EA400C48BF34EA430CBB
:101AD00003D5FFF7E6FDFFF780FFF0BCBDE8008C03
:101AE0002DE9804C9A46934670B491E8380007C8B7
:101AF00010F0804F08BF13F0804F03D100F005F8BD
:101B0000FFF76BFFF0BCBDE8008C20F07F4780EA58
:101B1000030023F07F4C07EB0C03A3F57C5300F08C
:101B20000040A3F1FE0392F0000F00F0B38095F0A7
:101B3000000F00F077802DE901494FEA11404FEA8C
:101B4000144621EA004800FB06FC24EA064708FB8D
:101B500006F607FB08F800FB07F718EB06484CEB06
:101B6000164C4FEA124B18EB07484FEA15464CEB60
:101B7000174022EA0B4E0BFB06FC25EA06470EFB3C
:101B800006F607FB0EFE0BFB07F71EEB064E4CEBB3
:101B9000164C4FF000061EEB074E4CEB174B18EBA4
:101BA0000B0840F1000018EB0E0B58EB000840F159
:101BB00000008F1A4FF000013CBFC943661B14BFE1
:101BC000B5EB040C00213CBFC943F61B4FEA174498
:101BD0004EEA8E0E27EA04454FEA1C4704FB0762D3
:101BE0002CEA074C05FB07F70CFB05F604FB0CFC85
:101BF00016EB074642EB174216EB0C4642EB1C4233
:101C00001BEB060658EB0202414146EA9E0601D54F
:101C1000BDE80189B619524141EB0101A3F101036D
:101C2000BDE801894FEA14454FEA114724EA054609
:101C300021EA074C05FB07F406FB07F70CFB06F14E
:101C400005FB0CFC11EB074144EB17444FEA12472C
:101C500011EB0C4144EB1C4422EA074C05FB07F254
:101C600006FB07F70CFB06F605FB0CFC16EB07461C
:101C700042EB174216EB0C4642EB1C456A1854F136
:101C8000000148BF7047B619524141EB0101A3F171
:101C90000103704795F0000F37D04FEA11424FEA29
:101CA000144721EA024624EA074C02FB07F106FB2F
:101CB00007F70CFB06F402FB0CFC14EB074441EBAA
:101CC00017414FEA154714EB0C4441EB1C4125EA40
:101CD000074C02FB07F506FB07F70CFB06F602FBB9
:101CE0000CFC16EB074645EB174516EB0C4645EB8F
:101CF0001C42121951F1000148BF7047B6195241F8
:101D000041EB0101A3F1010370474FEA14454FEA8B
:101D1000114724EA054621EA074C05FB07F106FBBB
:101D200007F70CFB06F24FF0000605FB0CFC12EB6C
:101D3000074241EB174112EB0C4251EB1C4148BFEB
:101D40007047921841EB0101A3F101037047FEE7D0
:101D50007047000030B502234371002305E000BF47
:101D6000056851F823402C605B1C9342F8D301684E
:101D7000096801224271084630BD10B5040002D046
:101D8000607910B106E0012010BD002020712046CE
:101D900000F004F801206071002010BD08B5006853
:101DA0000649884208D10648016841F48051016023
:101DB000006800F48050009008BD00000030024030
:101DC000303802402DE9F84FDFF8ACA100220124A1
:101DD0000AF1040B03254FF00F090BF1040E00BFAD
:101DE0000B6804FA02F63340B3426ED10F7907F064
:101DF0000307012F01D0022F16D187684FEA42084E
:101E000005FA08FC27EA0C07D1F80CC00CFA08FC0C
:101E10004CEA070CC0F808C04768B7430E79C6F310
:101E2000001696403E4346600E79F643B6070AD048
:101E3000C6684FEA420C05FA0CF7BE438F6807FAF2
:101E40000CF73743C7600E7906F00306022E10D157
:101E5000D60800EB8608D8F8206057074FEAD76C01
:101E600009FA0CF7BE430F6907FA0CF73743C8F8B5
:101E7000207006684FEA420C05FA0CF7BE430F7952
:101E800007F0030707FA0CF7374307604E6816F4AC
:101E9000403F6BD0394E376847F48047376036682B
:101EA00022F0030706F480460096354E07EB060C39
:101EB000DCF8086897074FEA177809FA08F7BE4375
:101EC000304FB84202D100271FE04FE02E4FB842FA
:101ED00001D1012719E02D4FB84201D1022714E0AA
:101EE0002B4FB84201D103270FE02A4FB84201D14E
:101EF00004270AE0284FB84201D1052705E0274F03
:101F0000B84201D1062700E0072707FA08F7374350
:101F1000CCF80878DAF800605746D1F804C09E4340
:101F20005FEACC3C00D51E433E60DBF800605F46B4
:101F3000D1F804C09E435FEA8C3C00D51E433E604E
:101F4000DEF800607746D1F804C09E435FEACC2CEF
:101F500000D51E433E60084F0C373E68D1F804C0E0
:101F60009E435FEA8C2C00D51E433E60521C102A13
:101F7000FFF436AFBDE8F88F003C01404438024022
:101F8000003001400000024000040240000802400E
:101F9000000C0240001002400014024000180240F1
:101FA0000069084000D0012070470AB18161704784
:101FB0000904FBE70148806870470000100000201A
:101FC0000248816802781144816070471000002047
:101FD0000B4810B5016841F400710160016841F4DB
:101FE00080610160016841F480710160032000F0AC
:101FF00063F8002000F006F800F024F8002010BD7F
:10200000003C024070B50D4D04464FF47A712878BB
:10201000B1FBF0F00A490968B1FBF0F000F02EFBCB
:1020200048B9102C07D200222146501E00F024F897
:1020300000206C6070BD012070BD00001000002009
:102040001C0000200B4882B0016841F4804101600F
:10205000006800F4804000900648001F016841F0CD
:1020600080510160006800F080500090072002B0AD
:1020700000F022B844380240F0B40E4B1B680C4606
:10208000C3F30223C3F10705042D00D90425191D4C
:10209000072901D2002300E0DB1E012606FA05F124
:1020A000491E214099409E40761E16403143F0BCA7
:1020B00000F0B7BD0CED00E0064900F0070208682B
:1020C0004FF6FF03184040EA0220034A104308601D
:1020D000704700000CED00E00000FA052DE9F04724
:1020E0000E46050065D0DFF81481D8F80000F7B27D
:1020F00000F00F00B04207D288F80070D8F8000056
:1021000000F00F00B04254D128683D4C810712D531
:10211000400703D5206840F4E0502060287800078D
:1021200003D5206840F4604020602068A96820F052
:10213000F000084320602878C0072DD03049686837
:102140000839012812D0022813D0032811D00968B9
:10215000890700292DDA216821F00301014321605C
:10216000FFF728FF814641F2883A0EE009688903AB
:10217000EFE709688901ECE7FFF71CFFA0EB090115
:10218000514502D90320BDE8F0872068696800F056
:102190000C00B0EB810FEFD1D8F80010404601F0F1
:1021A0000F01B14207D90770006800F00F00B0427C
:1021B00001D00120E7E72878400705D52068E968C5
:1021C00020F4E050084320602878000706D52068F6
:1021D000296920F4604040EAC100206000F038F82E
:1021E0002168084AC1F30311515CC84006490860E0
:1021F00006480068FFF706FF0020C4E7003C0240E5
:1022000008380240663200081C000020140000203C
:102210000448054900680968044AC1F38221515CF9
:10222000C84070471C000020083802407632000881
:102230000448054900680968044AC1F34231515C09
:10224000C84070471C000020083802407632000861
:10225000224810B5006810F00C02214815D041103A
:10226000042A11D01D4C241F082A0FD00C2A0CD18F
:102270002268236802F03F025B0221D52068C0F388
:102280008810A0FB010120E0084610BD22682368E9
:1022900002F03F025B0205D52068C0F38810A0FB66
:1022A000010104E02168C1F38811A1FB00010023B2
:1022B000FEF74EF82168C1F30141491C49000AE0CC
:1022C0002168C1F38811A1FB00010023FEF740F84B
:1022D0002168C1F30271B0FBF1F010BD0838024073
:1022E0000024F4002DE9F84F04007DD0DFF878B326
:1022F0002078ABF10407C007A7F1040550D0DBF844
:1023000000105846C1F3810101290FD00168C1F3C3
:102310008101022902D13968490207D40068C0F35B
:102320008100032809D13868400206D52868800357
:1023300036D560680028D8D032E06068B0F5803FBC
:1023400010D0B0F5A02F286810D020F4803028607D
:10235000286820F4802028606068A0B1FFF72AFE7A
:1023600006460CE0286840F48030F4E740F4802012
:102370002860F7E7FFF71EFE801B642876D82868E0
:102380008003F7D50CE0FFF715FE064605E000BF19
:10239000FFF710FE801B6428F0D828688003F7D46C
:1023A0002078DFF8C89280074FF0000A44D5DBF8A8
:1023B0000010584611F00C0F0FD00168C1F38101D5
:1023C000022902D13968490207D50068C0F38100AB
:1023D00003280AD13868400207D42868800715D539
:1023E000E068012800D111E03AE1E068B0B10120D5
:1023F000C9F80000FFF7DEFD064604E0FFF7DAFD4E
:10240000801B0228BAD828688007F7D52868216978
:1024100020F0F80040EAC10028600DE0C9F800A0F3
:10242000FFF7C8FD064604E0FFF7C4FD801B022845
:102430001CD828688007F7D42078000727D5DFF854
:1024400028828B48616908F16C0881B10121016023
:10245000FFF7B0FD064604E0FFF7ACFD801B022845
:1024600004D8D8F800008007F6D510E089E0C0F85D
:1024700000A0FFF79FFD064605E000BFFFF79AFDAD
:10248000801B02287DD8D8F800008007F6D4207879
:10249000400769D574484FF0000838300068C00024
:1024A0000BD471483830016841F0805101600068F8
:1024B0004FF0010800F0805000906E4E3068C0056B
:1024C00011D4306840F480703060FFF773FD0090E5
:1024D00006E000BFFFF76EFD0099401A022850D8B1
:1024E0003068C005F6D5604EA068683601280FD068
:1024F0000528306810D020F001003060306820F0EE
:1025000004003060A068B8B1FFF754FD00900FE000
:10251000306840F00100F4E740F004003060F7E775
:10252000FFF748FD0099411A41F28830814264D892
:1025300030688007F4D50EE0FFF73CFD009007E01F
:10254000FFF738FD0099411A41F28830814254D892
:1025500030688007F4D4B8F1000F05D04248383015
:10256000016821F080510160A069A8B3DBF8001078
:10257000C1F38101022947D00228C9F860A005D023
:1025800000E03AE0FFF716FD044639E0FFF712FDE0
:10259000064604E0FFF70EFD801B02282DD82868B0
:1025A0008001F7D4F4E907010843E168324A490899
:1025B00002EB0141A26841EA82110843217C40EA12
:1025C0000160217D40EA017038600120C9F8600097
:1025D000FFF7F0FC044606E044E000BFFFF7EAFC2A
:1025E000001B022809D828688001F7D53AE000BF0F
:1025F000FFF7E0FC001B022802D90320BDE8F88F9A
:1026000028688001F4D42DE00128F7D03868E26909
:1026100000F48001914223D1226A00F03F019142EF
:102620001ED147F6C071626A0140B1EB821F17D11B
:10263000A26A4FF0FF3300F4403103EB5202B1EBDA
:10264000024F0DD194F82C2000F07061B1EB026FB5
:1026500006D194F8301000F0E040B0EB017F01D0DB
:102660000120CBE70020C9E70838024000004742BC
:10267000800E4742007000400000FFFF10B5401E72
:10268000B0F1807F01D3012010BD4FF0E0246061E4
:102690000F21601700F0C5FA0020A061072020611B
:1026A000002010BD70B5040004D094F83D00002552
:1026B00010B106E0012070BD84F83C50204600F0C7
:1026C00023F8242084F83D002068C16821F40051DB
:1026D000C160204600F0CAF92068016921F49041E8
:1026E00001612068416921F02A0141612068C168C7
:1026F00041F40051C1602564202084F83D0084F835
:102700003E00002070BD0000F0B587B004461421E3
:102710006846FDF7C6FE21481F4F266800221F4964
:102720001038022303240725BE4215D10E6846F453
:1027300000360E60096801F400310591016841F02E
:10274000010101600068694600F0010005900C205D
:10275000CDE90003124818E0124FBE421AD10E68AC
:1027600046F480260E60096801F480210591016815
:1027700041F0040101600068694600F00400059022
:102780004FF44060CDE90003074802AE86E834000C
:10279000FFF718FB07B0F0BD00440040403802408E
:1027A0000000024000480040000802402DE9F84FB8
:1027B000044690F83E009A4616460D46202853D10E
:1027C000FDB1F6B194F83C0001284DD0012084F809
:1027D0003C0000272764222084F83E002763FFF78F
:1027E000E9FBA6858146E685A0684FF48058404500
:1027F00001D1206940B12E465FF0000584F83C709D
:1028000027E00120BDE8F88F0026F7E74B460022BD
:1028100020212046CDF800A000F0AEF908B1032039
:10282000F0E726B1A06840451BD038B108E0206829
:102830004068C0F3080025F8020B07E0206980B16A
:102840002068406800F07F0006F8010BE08D401E14
:10285000E085E08D0028D9D1202084F83E000020BA
:10286000D0E720684068EFE70220CBE72DE9F84386
:10287000044690F83D001F4616460D4620284CD1D0
:10288000C5B1BEB194F83C00012846D0012084F8BF
:102890003C004FF00008C4F84080212084F83D003F
:1028A000FFF788FBA6848146E684A068B0F5805FC8
:1028B00003D004E00120BDE8F883206928B12E464A
:1028C0005FF0000584F83C800EE00026FAE78021E6
:1028D000204600F051F9A0B9AEB116F8010B2168FD
:1028E0004860E08C401EE084E08C4B464FF00002D4
:1028F00000970028EBD14FF04001204600F03CF952
:1029000030B10320D7E735F8020BC0F30800E6E743
:10291000202084F83D000020CDE70220CBE7FEE731
:1029200030B587B014216846FDF7BBFD1F48002471
:10293000016841F004010160016801F004010591A2
:10294000016841F080010160016801F0800105919A
:10295000016841F001010160016801F00101059188
:10296000016841F0020101600068114D00F00200B1
:102970000590002220212846FFF717FB4FF4005056
:1029800000904FF40410CDE9010469460948FFF7AF
:1029900019FA202000900120CDE90104694628465B
:1029A0000394FFF70FFA07B030BD00003038024043
:1029B0000000024000080240FEE7FEE77047704753
:1029C000FFF7FEBA30B593B034216846FDF769FDD4
:1029D00014210DA8FDF765FD1E480025016841F092
:1029E00080510160006800F0805012901A48016820
:1029F00021F4404141F4804101600068022400F468
:102A000040401290012003901020009406940490FE
:102A1000CDE907504FF4A87009900420CDE90A04CD
:102A200068460C94FFF75EFC08B172B6FEE70DA98C
:102A30000F2081E831004FF48050CDE910050221CC
:102A40000DA8FFF74BFB002801D072B6FEE713B0CC
:102A500030BD00004038024000700040024801686C
:102A600041F470010160704788ED00E070B50446E4
:102A700000680169E26821F4405111430161216954
:102A8000A068E26908436169114308432168CA6884
:102A900049F20C639A430243CA6020684169A26903
:102AA00021F440711143416131492068884202D0CC
:102AB0003049884202D1FFF7BBFB01E0FFF7A8FBDA
:102AC000E2690023192164253226B2F5004F6268BD
:102AD00028D0A0FB0101930F9200FDF739FC0146BD
:102AE000B0FBF5F06FF01802504301EB800006EBED
:102AF0000010B0FBF5F000F0F002B1FBF5F002EBD6
:102B00000012B1FBF5F06FF01803584301EB8000A1
:102B100006EB0010B0FBF5F000F00F002168104448
:102B2000886070BDA0FB010192185B41FDF710FCAD
:102B30000146B0FBF5F00201B1FBF5F06FF01803B0
:102B4000584301EB800006EBC000B0FBF5F000F04D
:102B5000F80002EB4002B1FBF5F0584301EB8000B6
:102B600006EBC000B0FBF5F000F00700D6E7000070
:102B700000100140001401402DE9F041984617462D
:102B80000E460446069D27E0681C25D02DB1FFF7B0
:102B900011FAA0EB0800A8421ED920680C3050E8BA
:102BA000001F21F4D07140E80012002AF5D12068FE
:102BB000143050E8001F21F0010140E80012002A03
:102BC000F5D1202084F83D0084F83E00002084F8F0
:102BD0003C000320BDE8F0812068006836EA000070
:102BE00004D00020B842CFD00020F3E70120F9E75D
:102BF000FEE703B401984100009850EAC12018BFD5
:102C000004204A0D18BF40F0010040F2FF72B2EB01
:102C1000515F08BF40F00200012808BF052002B044
:102C200070470907090E002804DB00F1E02080F856
:102C30000014704700F00F0000F1E02080F8141D30
:102C4000704730380A2801D20120704700207047B1
:102C500038B504460020ADF8000014A000F0B6FA24
:102C60002178491C6018091F50F8042C204600F0F8
:102C700031FA28B118A000F0A9FA00F0BFF938BD68
:102C80001DA000F0A3FA2078022100F0A7F900F0BF
:102C900049FAADF800000246014620A000F096FA7D
:102CA0000221684600F00CFA38BD0000424C5F4437
:102CB000454255475F4D53473A626F6F746C6F6181
:102CC0006465725F68616E646C655F676574636993
:102CD000645F636D640A0000424C5F44454255479F
:102CE0005F4D53473A636865636B73756D2066612A
:102CF000696C2021210A0000424C5F44454255473F
:102D00005F4D53473A636865636B73756D207375E8
:102D100063636573732021210A000000424C5F4405
:102D2000454255475F4D53473A204D43552069640E
:102D30003A202564202523782021210A0000000064
:102D400010B5044610A000F041FA2178491C601823
:102D5000091F50F8042C204600F0BCF930B115A032
:102D600000F034FABDE8104000F048B919A000F0B6
:102D70002DFA2078082100F031F9BDE81040082133
:102D80001D4800F09DB90000424C5F444542554744
:102D90005F4D53473A626F6F746C6F616465725F29
:102DA00068616E646C655F67657468656C705F63AD
:102DB0006D640A00424C5F44454255475F4D53479E
:102DC0003A636865636B73756D206661696C202179
:102DD000210A0000424C5F44454255475F4D53472E
:102DE0003A636865636B73756D20737563636573B0
:102DF000732021210A0000000000002038B504469D
:102E000000208DF8000014A000F0E0F92178491CA2
:102E10006018091F50F8042C204600F05BF928B117
:102E200018A000F0D3F900F0E9F838BD1DA000F0BB
:102E3000CDF92078022100F0D1F800F06BF98DF87F
:102E400000000246014620A000F0C0F901216846BA
:102E500000F036F938BD0000424C5F44454255470A
:102E60005F4D53473A626F6F746C6F616465725F58
:102E700068616E646C655F6765747264705F636DD2
:102E8000640A0000424C5F44454255475F4D53473A
:102E90003A636865636B73756D206661696C2021A8
:102EA000210A0000424C5F44454255475F4D53475D
:102EB0003A636865636B73756D20737563636573DF
:102EC000732021210A000000424C5F4445425547CF
:102ED0005F4D53473A205244502069733A2025648D
:102EE000202523782021210A0000000038B504465F
:102EF00012A000F06BF92178491C6018091F50F8E6
:102F0000042C204600F0E6F828B117A000F05EF986
:102F100000F074F838BD1CA000F058F920780121A9
:102F200000F05CF810218DF800100A461FA000F098
:102F30004DF90121684600F0C3F838BD424C5F44AA
:102F4000454255475F4D53473A626F6F746C6F61EE
:102F50006465725F68616E646C655F6765747665F1
:102F6000725F636D640A0000424C5F4445425547FE
:102F70005F4D53473A636865636B73756D20666197
:102F8000696C2021210A0000424C5F4445425547AC
:102F90005F4D53473A636865636B73756D20737556
:102FA00063636573732021210A000000424C5F4473
:102FB000454255475F4D53473A424C5F5645522074
:102FC0003A202564202523780A0000000249086879
:102FD00080F30888486800470080000808B5A520ED
:102FE0008DF800008DF801104FF0FF330222694682
:102FF0000148FFF73BFC08BD2000002008B57F20FA
:103000008DF800004FF0FF33012269460148FFF7B9
:103010002DFC08BD200000201A4C4FF0FF35C821C0
:103020001848FDF73EFA17492B460122A1F1880006
:10303000FFF7BCFB134822782B46611C8838FFF74A
:10304000B5FB607851380C2818D2DFE800F0070B88
:103050000F130606060606060606E0E70948FFF710
:1030600045FFDCE70748FFF76BFED8E70548FFF7A9
:10307000EFFDD4E70348FFF7C1FED0E702A000F060
:10308000A5F8CCE7A8000020424C5F4445425547D4
:103090005F4D53473A496E76616C696420636F6D8A
:1030A0006D616E6420636F64652072656365697627
:1030B00065642066726F6D20686F7374200A00006B
:1030C0008AB201464FF0FF330148FFF7CFBB000043
:1030D00020000020F8B507460C480D4616468168CA
:1030E00041F001018160FF20002407E0385D00907D
:1030F000012269460648FEF72DFE641CAC42F5D35A
:10310000B04201D10020F8BD0120F8BD00300240DE
:103110000800002002480068C0F307207047000044
:1031200000C0FF1F02480068C0F30B00704700009A
:10313000002004E070B5FEF74BFFFFF743FCFFF7FC
:10314000EFFB1D481B494FF4E13500240160C0E945
:1031500001540C26C460C0E904468461C461FFF7D1
:10316000A1FA08B172B6FEE7134814494430016071
:10317000C0E90154C460C0E904468461C461FFF73A
:1031800091FA08B172B6FEE70E490D48086008468C
:10319000FEF7F3FD08B172B6FEE74FF400510A489E
:1031A000FEF7FEFE18B1FFF711FF002070BDFFF71C
:1031B00033FF000000440040200000200048004091
:1031C0000030024008000020000802400FB400B5A3
:1031D00095B017AA68461699FDF732F96846FDF7CB
:1031E00041F982B24FF0FF3369460348FFF73EFBD7
:1031F00015B05DF814FB00006400002010B5002934
:103200000AD00878002807D005487844FEF790F9DE
:10321000002801D0002010BD0248784410BD0000F5
:10322000920100008A01000010B500290AD0087838
:10323000002807D005487844FEF77AF9002801D025
:10324000002010BD0248784410BD0000820100003B
:103250007A0100004FF04070E1EE100A7047FDF770
:1032600074BDFDF7A9BE00000000000000000102CF
:10327000030406070809000000000102030400001F
:1032800000000000000000003031323334353637A2
:10329000383941424344454640305800303132339A
:1032A000343536373839616263646566403078009A
:1032B00004000008000000000000000200010000FF
:1032C00010303132333435363738396162636465F2
:1032D0006678700030313233343536373839414210
:1032E000434445465850000002400000000000A042
:1032F0000000000005400000000000C800000000C1
:103300000C4000000000409C00000000194000003C
:103310000020BCBE0000000034400000BFC91B8E6E
:1033200000000004B5400000504BCFD06607E2CF4C
:10333000010000006C4100003E8251AADFEEA7347C
:1033400001000000D9420000DCB5A0E23A301F972E
:10335000FFFFFFFFB4450000FD25A0C8E9A3C14F52
:10336000FFFFFFFFFF3F00000000008000000000A3
:10337000FF3F00000000008000000000C83400088B
:10338000000000202000000000020008E8340008CF
:1033900020000020B00700001C0200081C000000F4
:1033A00043000000F8FFFFFF0C0000000E000000CB
:1033B0000F0000002E00000010010000430000007C
:1033C000F8FFFFFF00404040404040404040414146
:1033D00041414140404040404040404040404040EA
:1033E0004040404040050202020202020202020284
:1033F0000202020202202020202020202020200281
:103400000202020202029090909090901010101010
:1034100010101010101010101010101010101010AC
:103420000202020202028888888888880808080840
:10343000080808080808080808080808080808080C
:103440000202020240000000000000000000000034
:10345000000000000000000000000000000000006C
:10346000000000000000000000000000000000005C
:10347000000000000000000000000000000000004C
:10348000000000000000000000000000000000003C
:10349000000000000000000000000000000000002C
:1034A000000000000000000000000000000000001C
:1034B000000000000000000000000000000000000C
:1034C0000000000000000000515253545556575A56
:1034D00000000000000000000100000010000000DB
:0834E000000000000024F400CC
:04000005080001C529
:00000001FF
